:020000040800F2
:1080000000500020498E0008CD8D0008CF8D00085B
:10801000D18D0008D38D0008D58D00080000000028
:10802000000000000000000000000000D78D0008E4
:10803000D98D000800000000DB8D0008DD8D0008F0
:10804000918E0008918E0008918E0008918E000894
:10805000918E0008918E0008918E0008918E000884
:10806000918E0008918E0008918E0008918E000874
:10807000918E0008918E0008918E0008918E000864
:10808000918E0008918E0008918E0008918E000854
:10809000918E0008918E0008918E0008918E000844
:1080A000918E0008918E0008918E0008918E000834
:1080B000918E0008918E0008918E0008918E000824
:1080C000918E0008918E0008918E0008918E000814
:1080D000918E0008918E0008918E0008918E000804
:1080E000E18D0008918E0008918E000800000000CC
:1080F0000000000000000000000000000000000080
:0C81000000000000000000005FF808F123
:10810C0010B5054C237833B9044B13B10448AFF3C5
:10811C0000800123237010BD2C0000200000000003
:10812C00EC8E000808B5034B1BB103490348AFF3B1
:10813C00008008BD0000000030000020EC8E00081C
:10814C0038B50E4B054618784FF47A73B3FBF0F341
:10815C000B4A1068B0FBF3F000F0A0F8044658B9D5
:10816C000F2D09D8024629464FF0FF3000F054F885
:10817C00044B20461D6038BD012038BD0000002096
:10818C002800002004000020074A08B513680320CB
:10819C0043F01003136000F02DF80020FFF7D0FF20
:1081AC0000F0B0FD002008BD00200240034A044B43
:1081BC0011681B780B441360704700BF4800002007
:1081CC0000000020014B1868704700BF48000020D9
:1081DC0038B50446FFF7F6FF0546631C1EBF044B7B
:1081EC001B78E418FFF7EEFF401B8442FAD838BD29
:1081FC0000000020074A0002D36800F4E06023F47A
:10820C00E0631B041B0C43F0BF6343F400330343D4
:10821C00D360704700ED00E0174B30B5DC68C4F359
:10822C000224C4F10703251D042B28BF0423062DAB
:10823C004FF0010598BF002405FA03F303F1FF3357
:10824C0088BF033C1940A14005FA04F4013C2240CC
:10825C00002842EA01024FEA0212A9BF00F1604075
:10826C00064BD2B200F56140BBBF00F00F00D2B29A
:10827C0080F800231A5430BD00ED00E014ED00E04E
:10828C00002808DB0123420900F01F0003FA00F06C
:10829C00014B43F82200704700E100E00138B0F1D7
:1082AC00807F0AD2F021064B064A586082F82310D0
:1082BC000020072298601A6070470120704700BFA9
:1082CC0010E000E000ED00E02DE9F74F0024264619
:1082DC00664BDFF8A8E1DFF8A8C10A6832FA06F5A8
:1082EC0002D103B0BDE8F08F4FF0010808FA06F890
:1082FC0002EA080290457FD14D68122D00F0AA8049
:10830C0000F28380022D00F0A28077D8002D00F0BF
:10831C008980012D00F099804FF00F09FF2A93BF3F
:10832C00824606F18045083DD0F800B092BFB500FA
:10833C00D0F804B0AD0009FA05F82BEA080804FAE5
:10834C0005F588BF00F1040A48EA0505CAF8005093
:10835C00D1F804A01AF0805F4ED0454D444FAD6962
:10836C0026F0030845F00105BD61BD6908F18048A0
:10837C0005F00105019508F5803806F0030B019D09
:10838C004FEA8B0BD8F8085009FA0BF925EA0909C2
:10839C00384DA84263D005F58065A84261D005F53B
:1083AC008065A8425FD005F58065A8420CBF032507
:1083BC00042505FA0BF545EA0905C8F808501D68AF
:1083CC001AF4803F14BF154395431D605D681AF481
:1083DC00003F14BF154395435D609D681AF4801FE0
:1083EC0014BF154395439D60DD681AF4001F14BF3C
:1083FC002A4325EA0202DA6001366EE7032D22D009
:10840C00112D89D1CC68043486E71B4FBD4209D0AD
:10841C0012D8DFF870904D4504D009F580394D45E0
:10842C007FF47AAF8C68C4B1012C0CBFC0F81080FB
:10843C00C0F8148008246FE77545F3D06545F1D07A
:10844C00DFF84490EBE7002466E7CC6864E7CC687F
:10845C00083461E7CC680C345EE704245CE7002543
:10846C00A7E70125A5E70225A3E700BF000401400B
:10847C0000100240000801400000211000003110E3
:10848C000000321000001110000022100AB101612E
:10849C0070470904FBE7C3680B4214BF41610161DB
:1084AC007047704708B5044B5969014202D05861B6
:1084BC00FFF7F7FF08BD00BF000401402DE9F341B1
:1084CC00054608B901203CE00368DB0710D42B6893
:1084DC009F075DD42B68190700F194802B685A070D
:1084EC0000F1BE80E869002840F02C81002028E0D3
:1084FC008F4C636803F00C03042B07D0636803F004
:10850C000C03082B09D16368DE0306D523689C0392
:10851C00DDD56B68002BDAD1D4E76B68B3F5803FFF
:10852C0012D1236843F480332360FFF74BFE0646D9
:10853C0023689803CBD4FFF745FE801B6428F7D93A
:10854C00032002B0BDE8F0819BB9236823F480338B
:10855C002360236823F480232360FFF733FE064651
:10856C0023689903B3D5FFF72DFE801B6428F7D938
:10857C00E6E7B3F5A02F236803D143F480232360EF
:10858C00CFE723F480332360236823F48023CBE7E5
:10859C00674C636813F00C0F07D0636803F00C038F
:1085AC00082B10D16368DA030DD423689B0702D51E
:1085BC002B69012B86D123686A6923F0F80343EAFF
:1085CC00C203236086E72A695A4B6AB101221A60FA
:1085DC00FFF7F8FD064623689F07ECD4FFF7F2FD82
:1085EC00801B0228F7D9ABE71A60FFF7EBFD0646B4
:1085FC00236898077FF56EAFFFF7E4FD801B022818
:10860C00F6D99DE7AA694A4C4B4BDAB101221A60A4
:10861C00FFF7D8FD0646636A9B070DD54FF4FA5257
:10862C00464B1B68B3FBF2F3019300BF019B5A1E30
:10863C000192002BF9D151E7FFF7C4FD801B0228F2
:10864C00E9D97DE71A60FFF7BDFD0646636A9F070F
:10865C007FF544AFFFF7B6FD801B0228F6D96FE714
:10866C00334CE369D80024D40127E36943F08053E9
:10867C00E361E36903F080530093009B304E336851
:10868C00D90518D5EB68012B26D1236A43F00103D9
:10869C002362FFF797FD41F288368046236A9B07D9
:1086AC003FD5002F3FF41EAFE36923F08053E36105
:1086BC0018E70027E2E7336843F480733360FFF771
:1086CC0081FD80463368DA05DCD4FFF77BFDA0EB37
:1086DC0008006428F6D933E7ABB9236A41F288382D
:1086EC0023F001032362236A23F004032362FFF7C0
:1086FC0069FD0646236A9807D3D5FFF763FD801BF7
:10870C004045F7D91CE7052B236A03D143F004033A
:10871C002362BAE723F001032362236A23F00403E4
:10872C00B6E7FFF74FFDA0EB0800B042B6D907E75C
:10873C000010024000004242800442422800002007
:10874C00007000402A4B5A681C4602F00C02082AA2
:10875C003DD00023274E022833602BD1FFF732FD8A
:10876C000746236899011FD42B6AB3F5803F05D1C6
:10877C006268A96822F400320A436260696A62681E
:10878C000B4322F474121343636001233360FFF72D
:10879C0019FD054623689A013FF5A8AEFFF712FDB7
:1087AC00401B0228F6D9CBE6FFF70CFDC01B0228B4
:1087BC00D7D9C5E6FFF706FD054623689B017FF573
:1087CC0095AEFFF7FFFC401B0228F6D9B8E601284E
:1087DC003FF4B7AE58682B6A00F480329A427FF4AB
:1087EC0071AE6B6A00F47010C01A18BF0120A8E6B5
:1087FC00001002406000424230B5194B87B002AC09
:10880C0003F11005224618685968083303C2AB42BD
:10881C001446F7D101238DF80430022311498DF849
:10882C0005304B6803F00C02082A17D1C3F38342BE
:10883C0006A80244DB0312F8102C0CD54B680A482E
:10884C00C3F34043504306AA134413F8143CB0FB43
:10885C00F3F007B030BD05485043FAE70248F8E79B
:10886C00048F00080010024000127A0000093D003D
:10887C002DE9F0410D46044610B90120BDE8F08108
:10888C00454A136803F007038B4229D321688E07EE
:10889C0031D4CA0744D4404A136803F007039D42FD
:1088AC0067D322683D4D12F0040F6ED1130706D525
:1088BC006B68226923F4605343EAC2036B60FFF7D1
:1088CC009BFF6B68364AC3F30313D35CD840354B1C
:1088DC001860354B1868FFF733FC0020BDE8F081B9
:1088EC00136823F007030B431360136803F00703AB
:1088FC009942C2D1CAE7294B11F0040F1EBF5A6826
:10890C0042F4E0625A60080742BF5A6842F460526F
:10891C005A605A68A06822F0F00202435A60B8E725
:10892C0062681E4E012A33681BD113F4003FA4D099
:10893C00736841F2883823F0030313437360FFF725
:10894C0041FC07467368626803F00C03B3EB820FBB
:10895C00A1D0FFF737FCC01B4045F3D90320BDE87D
:10896C00F081022A02D113F0007FE0E713F0020F2E
:10897C00DDE7136823F007032B431360136803F040
:10898C0007039D427FF479AF8BE76B68E16823F4B2
:10899C00E0630B436B6089E700200240001002404B
:1089AC00148F00082800002004000020044B054A06
:1089BC005B68C3F30223D35C034A1068D84070474A
:1089CC0000100240248F000828000020044B054AA8
:1089DC005B68C3F3C223D35C034A1068D84070476A
:1089EC0000100240248F00082800002038B50546EE
:1089FC000368C1681A69192422F440520A431A61A7
:108A0C0082680069D9680243686921F4B05121F089
:108A1C000C0102430A43DA605A69A96922F44072D4
:108A2C000A435A610D4A934214D1FFF7CFFF6043BA
:108A3C006C686422A400B0FBF4F0B0FBF2F402FB0F
:108A4C0014031B013233B3FBF2F3296803EB041359
:108A5C008B6038BDFFF7AAFFE9E700BF0038014083
:108A6C00F8B504460E4617461D4621680B6836EAD3
:108A7C00030301D10020F8BD6B1CF7D095B9236816
:108A8C000320DA6822F4D072DA605A6922F001020B
:108A9C005A61202384F8393084F83A30002384F862
:108AAC003830F8BDFFF78EFBC01B8542DDD2E6E700
:108ABC0010B5044640B390F8393003F0FF021BB9EF
:108ACC0080F8382000F040F92423226884F83930EB
:108ADC00D368204623F40053D360FFF787FF236845
:108AEC0000201A6922F490421A615A6922F02A0273
:108AFC005A61DA6842F40052DA602023E06384F8A9
:108B0C00393084F83A3010BD012010BD2DE9F04108
:108B1C001F4690F839300446202B0D4690464ED116
:108B2C00002949D0002A47D090F83830012B46D084
:108B3C00012380F838300023C363212380F83930B7
:108B4C00FFF740FB0646A4F82480A4F82680E38CAB
:108B5C009BB26BB93B46324640212046FFF780FF63
:108B6C00A8B9202384F8380084F83930BDE8F081A6
:108B7C00E38C3246013B9BB2E384A3688021B3F5BE
:108B8C00805F20463B460ED1FFF76AFF10B10320F1
:108B9C00BDE8F0812B882268C3F308035360236976
:108BAC0043B90235D3E7FFF75BFF0028EFD1236809
:108BBC002A785A600135CAE70120BDE8F08102200D
:108BCC00BDE8F08110B590B02822002106A800F075
:108BDC007FF91422002101A800F07AF901230A93ED
:108BEC00102302240B934FF4601306A80F930694E2
:108BFC000D94FFF763FC0F234FF480620193002365
:108C0C00214601A80294039304920593FFF730FECA
:108C1C0010B010BD00B589B0FFF7B6FAFFF7D2FF60
:108C2C00102200210DEB020000F052F92E4B4FF4F4
:108C3C0000519A692D4842F010029A619A690025F8
:108C4C0002F010020192019A9A69012442F0080282
:108C5C009A619A6902F008020292029A9A6942F0A9
:108C6C0004029A619B69002203F004030393039BA3
:108C7C00FFF70CFC4FF400530493022304A91B4888
:108C8C00059406950793FFF71FFB4FF4805304934D
:108C9C00174B04A9174805930694FFF715FB2A46B2
:108CAC0029462820FFF7B8FA2820FFF7E9FA4FF4F5
:108CBC00E133114C114A204684E80C000C23A560CA
:108CCC00E5602561A561E5616361FFF7F1FE0C4D7F
:108CDC004FF0FF331E2229462046FFF717FF4FF4B3
:108CEC00FA70FFF775FAF3E700100240001001402C
:108CFC0000002110000C01404C0000200038014005
:108D0C00080000200E4B82B09A6942F001029A6171
:108D1C009A6902F001020092009ADA6942F08052DC
:108D2C00DA61DB69074A03F080530193019B5368B6
:108D3C0023F0E06343F00073536002B0704700BF50
:108D4C00001002400000014010B5044686B010220D
:108D5C00002102A800F0BCF82268174B9A4228D1D7
:108D6C0003F558439A6902A942F480429A619A69C0
:108D7C00124802F480420092009A9A6942F004026E
:108D8C009A619B6903F004030193019B4FF40073F8
:108D9C0002930223039303230593FFF795FA4FF4F1
:108DAC0080630293002302A9044803930493FFF702
:108DBC008BFA06B010BD00BF00380140000801401E
:108DCC007047FEE7FEE7FEE7FEE770477047704727
:108DDC00FFF7ECB908B505484FF40051FFF75BFB02
:108DEC00BDE808404FF48050FFF75CBB0010014019
:108DFC000E4B1A6842F001021A6059680C4A0A407C
:108E0C005A601A6822F0847222F480321A601A684E
:108E1C0022F480221A605A6822F4FE025A604FF43F
:108E2C001F029A60034A044B9A607047001002407C
:108E3C000000FFF80080000800ED00E0002103E0D6
:108E4C000B4B5B58435004310A480B4B42189A4267
:108E5C00F6D30A4A02E0002342F8043B084B9A423C
:108E6C00F9D3FFF7C5FF00F00FF8FFF7D3FE7047FB
:108E7C00348F0008000000202C0000202C00002063
:108E8C008C000020FEE7000070B500250C4E0D4C48
:108E9C00A41BA410A54209D100F022F800250A4E0B
:108EAC000A4CA41BA410A54205D170BD56F8253060
:108EBC0098470135EEE756F8253098470135F2E72B
:108ECC002C8F00082C8F00082C8F0008308F000886
:108EDC0003460244934200D1704703F8011BF9E7A3
:108EEC00F8B500BFF8BC08BC9E467047F8B500BF8B
:088EFC00F8BC08BC9E4670475B
:108F040002030405060708090A0B0C0D0E0F1010C6
:108F14000000000000000000010203040607080925
:088F240000000000010203043B
:048F2C003181000887
:048F30000D810008A7
:108F3400010000001000000048656C6C6F20667230
:108F44006F6D2055736572204170706C6963617434
:0C8F5400696F6E0D0A0000000024F4009C
:0400000508008E4918
:00000001FF
