:020000040800F2
:1000000000500020B9160008251600082716000821
:10001000291600082B1600082D1600080000000005
:100020000000000000000000000000002F16000883
:1000300031160008000000003316000835160008CD
:100040000117000801170008011700080117000830
:100050000117000801170008011700080117000820
:100060000117000801170008011700080117000810
:100070000117000801170008011700080117000800
:1000800001170008011700080117000801170008F0
:1000900001170008011700080117000801170008E0
:1000A00001170008011700080117000801170008D0
:1000B00001170008011700080117000801170008C0
:1000C00001170008011700080117000801170008B0
:1000D00001170008011700080117000801170008A0
:1000E00001170008011700080117000800000000B0
:1000F0000000000000000000000000000000000000
:0C01000000000000000000005FF808F1A3
:10010C0010B5054C237833B9044B13B10448AFF345
:10011C0000800123237010BD780000200000000037
:10012C00BC1F000808B5034B1BB103490348AFF3D0
:10013C00008008BD000000007C000020BC1F0008EF
:10014C00034613F8012B002AFBD1181A013870470B
:10015C00D0400B1CD1409C46203AD340184352420D
:10016C00634693401843704738B50E4B05461878D4
:10017C004FF47A73B3FBF0F30B4A1068B0FBF3F057
:10018C0000F080F8044658B90F2D09D802462946CC
:10019C004FF0FF3000F042F8044B20461D6038BD94
:1001AC00012038BD000000201000002004000020B9
:1001BC00074A08B51368032043F01003136000F0DE
:1001CC001BF80020FFF7D0FF01F0B4F9002008BDA8
:1001DC0000200240034A044B11681B780B44136047
:1001EC00704700BFA000002000000020014B1868E1
:1001FC00704700BFA0000020074A0002D36800F43B
:10020C00E06023F4E0631B041B0C43F0BF6343F476
:10021C0000330343D360704700ED00E0174B30B55B
:10022C00DC68C4F30224C4F10703251D042B28BF8A
:10023C000423062D4FF0010598BF002405FA03F3A3
:10024C0003F1FF3388BF033C1940A14005FA04F4C5
:10025C00013C2240002842EA01024FEA0212A9BFE7
:10026C0000F16040064BD2B200F56140BBBF00F01C
:10027C000F00D2B280F800231A5430BD00ED00E01C
:10028C0014ED00E00138B0F1807F0AD2F021064B6A
:10029C00064A586082F823100020072298601A60E2
:1002AC0070470120704700BF10E000E000ED00E057
:1002BC0010B5044650B1437903F0FF0213B9027133
:1002CC0001F05AF901230020637110BD012010BD0B
:1002DC000346022010B5587101EB82029142186856
:1002EC0003D1012200685A7110BD51F8044B04600F
:1002FC00F4E70000114AD36813F0100305D010493D
:10030C00CB6943F00203CB611023D268500706D5AA
:10031C000B4943F00403CA6942F00102CA61074A5F
:10032C00D169C90708D50648C16941F00401C1610A
:10033C00D16921F00101D161D360704700200240E6
:10034C00A8000020064B186910F0800007D0054A61
:10035C005A6002F188325A601869C0F3C0107047B5
:10036C000020024023016745034A0020136943F033
:10037C0080031361704700BF00200240F8B50646A9
:10038C00FFF734FF114C07462546E368D80712D413
:10039C00E368990644BF2023E360EB68DA0606D4D1
:1003AC00EB69DB0703D4E86810F0040002D0FFF718
:1003BC00A1FF0120F8BD731CE7D00EB90320F8BDD6
:1003CC00FFF714FFC01B8642DFD2F7E70020024084
:1003DC002DE9F84F1F4C9946237E0546012B0F46FD
:1003EC00904633D001234CF250302376FFF7C6FFF2
:1003FC0040BB012D03D0022D0CBF02250425002685
:10040C00B246DFF854B0320140464946FFF7A0FE31
:10041C00C4F81CA0DBF8103080B243F00103CBF819
:10042C00103027F816004CF25030FFF7A7FFDBF81E
:10043C00103023F00103CBF8103018B90136F3B2A9
:10044C009D42E0D800232376BDE8F88F0220BDE85A
:10045C00F88F00BFA8000020002002400022064BAD
:10046C00DA61064B1A6942F004021A611A6942F009
:10047C0040021A61704700BFA80000200020024013
:10048C000022064BDA61064B1A6942F002021A612D
:10049C0058611A6942F040021A617047A8000020A6
:1004AC00002002402DE9F041234D07462B7E884663
:1004BC00012B3DD0012403682C76022B4CF25030DA
:1004CC0013D1FFF75BFF20B1012000232B76BDE891
:1004DC00F081FFF7C3FF4CF25030FFF74FFF174A84
:1004EC00136923F004031361EFE7FFF747FF0028BC
:1004FC00EAD14FF0FF33C8F800302046BE680F4CED
:10050C00FA68BB6803EB82239E42DED23046FFF7CB
:10051C00B7FF4CF25030FFF731FF236923F0020391
:10052C00236110B1C8F80060CFE706F58066E7E7F5
:10053C000220BDE8F08100BFA8000020002002408E
:10054C002DE9F74F00242646664BDFF8A8E1DFF8CB
:10055C00A8C10A6832FA06F502D103B0BDE8F08FE3
:10056C004FF0010808FA06F802EA080290457FD11C
:10057C004D68122D00F0AA8000F28380022D00F04D
:10058C00A28077D8002D00F08980012D00F0998091
:10059C004FF00F09FF2A93BF824606F18045083DB4
:1005AC00D0F800B092BFB500D0F804B0AD0009FA95
:1005BC0005F82BEA080804FA05F588BF00F1040ACF
:1005CC0048EA0505CAF80050D1F804A01AF0805F7B
:1005DC004ED0454D444FAD6926F0030845F001055A
:1005EC00BD61BD6908F1804805F00105019508F56C
:1005FC00803806F0030B019D4FEA8B0BD8F808509E
:10060C0009FA0BF925EA0909384DA84263D005F51A
:10061C008065A84261D005F58065A8425FD005F5DC
:10062C008065A8420CBF0325042505FA0BF545EAA5
:10063C000905C8F808501D681AF4803F14BF15430B
:10064C0095431D605D681AF4003F14BF1543954334
:10065C005D609D681AF4801F14BF154395439D601F
:10066C00DD681AF4001F14BF2A4325EA0202DA607F
:10067C0001366EE7032D22D0112D89D1CC680434BC
:10068C0086E71B4FBD4209D012D8DFF870904D455C
:10069C0004D009F580394D457FF47AAF8C68C4B12C
:1006AC00012C0CBFC0F81080C0F8148008246FE730
:1006BC007545F3D06545F1D0DFF84490EBE70024A5
:1006CC0066E7CC6864E7CC68083461E7CC680C3426
:1006DC005EE704245CE70025A7E70125A5E70225D2
:1006EC00A3E700BF000401400010024000080140D5
:1006FC000000211000003110000032100000111019
:10070C00000022108368194214BF0120002070479A
:10071C000AB1016170470904FBE7C3680B4214BFBF
:10072C0041610161704700002DE9F341054608B9AC
:10073C0001203CE00368DB0710D42B689F075DD4D5
:10074C002B68190700F194802B685A0700F1BE80C2
:10075C00E869002840F02C81002028E08F4C636869
:10076C0003F00C03042B07D0636803F00C03082B75
:10077C0009D16368DE0306D523689C03DDD56B685D
:10078C00002BDAD1D4E76B68B3F5803F12D1236824
:10079C0043F480332360FFF729FD06462368980352
:1007AC00CBD4FFF723FD801B6428F7D9032002B0BC
:1007BC00BDE8F0819BB9236823F480332360236860
:1007CC0023F480232360FFF711FD06462368990369
:1007DC00B3D5FFF70BFD801B6428F7D9E6E7B3F51B
:1007EC00A02F236803D143F480232360CFE723F4A5
:1007FC0080332360236823F48023CBE7674C636842
:10080C0013F00C0F07D0636803F00C03082B10D106
:10081C006368DA030DD423689B0702D52B69012B7F
:10082C0086D123686A6923F0F80343EAC203236084
:10083C0086E72A695A4B6AB101221A60FFF7D6FC87
:10084C00064623689F07ECD4FFF7D0FC801B0228D8
:10085C00F7D9ABE71A60FFF7C9FC0646236898077F
:10086C007FF56EAFFFF7C2FC801B0228F6D99DE71F
:10087C00AA694A4C4B4BDAB101221A60FFF7B6FC5D
:10088C000646636A9B070DD54FF4FA52464B1B681C
:10089C00B3FBF2F3019300BF019B5A1E0192002B94
:1008AC00F9D151E7FFF7A2FC801B0228E9D97DE7BB
:1008BC001A60FFF79BFC0646636A9F077FF544AFFF
:1008CC00FFF794FC801B0228F6D96FE7334CE369E1
:1008DC00D80024D40127E36943F08053E361E36932
:1008EC0003F080530093009B304E3368D90518D524
:1008FC00EB68012B26D1236A43F001032362FFF737
:10090C0075FC41F288368046236A9B073FD5002F41
:10091C003FF41EAFE36923F08053E36118E700272F
:10092C00E2E7336843F480733360FFF75FFC804683
:10093C003368DA05DCD4FFF759FCA0EB0800642817
:10094C00F6D933E7ABB9236A41F2883823F00103B7
:10095C002362236A23F004032362FFF747FC064655
:10096C00236A9807D3D5FFF741FC801B4045F7D984
:10097C001CE7052B236A03D143F004032362BAE777
:10098C0023F001032362236A23F00403B6E7FFF785
:10099C002DFCA0EB0800B042B6D907E700100240CE
:1009AC0000004242800442421000002000700040CF
:1009BC002A4B5A681C4602F00C02082A3DD0002330
:1009CC00274E022833602BD1FFF710FC0746236813
:1009DC0099011FD42B6AB3F5803F05D16268A968D1
:1009EC0022F400320A436260696A62680B4322F4A3
:1009FC0074121343636001233360FFF7F7FB054662
:100A0C0023689A013FF5A8AEFFF7F0FB401B0228C4
:100A1C00F6D9CBE6FFF7EAFBC01B0228D7D9C5E60F
:100A2C00FFF7E4FB054623689B017FF595AEFFF7C6
:100A3C00DDFB401B0228F6D9B8E601283FF4B7AE1F
:100A4C0058682B6A00F480329A427FF471AE6B6A5C
:100A5C0000F47010C01A18BF0120A8E60010024064
:100A6C006000424230B5194B87B002AC03F110055F
:100A7C00224618685968083303C2AB421446F7D1B2
:100A8C0001238DF80430022311498DF805304B6891
:100A9C0003F00C02082A17D1C3F3834206A80244C0
:100AAC00DB0312F8102C0CD54B680A48C3F34043F7
:100ABC00504306AA134413F8143CB0FBF3F007B0F0
:100ACC0030BD05485043FAE70248F8E7D41F000848
:100ADC000010024000127A0000093D002DE9F0419F
:100AEC000D46044610B90120BDE8F081454A136853
:100AFC0003F007038B4229D321688E0731D4CA0730
:100B0C0044D4404A136803F007039D4267D322681C
:100B1C003D4D12F0040F6ED1130706D56B68226998
:100B2C0023F4605343EAC2036B60FFF79BFF6B68CF
:100B3C00364AC3F30313D35CD840354B1860354B9E
:100B4C001868FFF711FB0020BDE8F081136823F053
:100B5C0007030B431360136803F007039942C2D1D8
:100B6C00CAE7294B11F0040F1EBF5A6842F4E06229
:100B7C005A60080742BF5A6842F460525A605A6879
:100B8C00A06822F0F00202435A60B8E762681E4E79
:100B9C00012A33681BD113F4003FA4D0736841F2CF
:100BAC00883823F0030313437360FFF71FFB0746DA
:100BBC007368626803F00C03B3EB820FA1D0FFF7EC
:100BCC0015FBC01B4045F3D90320BDE8F081022A78
:100BDC0002D113F0007FE0E713F0020FDDE713689A
:100BEC0023F007032B431360136803F007039D42A4
:100BFC007FF479AF8BE76B68E16823F4E0630B4318
:100C0C006B6089E700200240001002400B240008B2
:100C1C001000002004000020044B054A5B68C3F35D
:100C2C000223D35C034A1068D8407047001002407E
:100C3C001B24000810000020044B054A5B68C3F31A
:100C4C00C223D35C034A1068D8407047001002409E
:100C5C001B2400081000002038B505460368C16845
:100C6C001A69192422F440520A431A6182680069F5
:100C7C00D9680243686921F4B05121F00C01024398
:100C8C000A43DA605A69A96922F440720A435A612C
:100C9C000D4A934214D1FFF7CFFF60436C68642276
:100CAC00A400B0FBF4F0B0FBF2F402FB14031B0144
:100CBC003233B3FBF2F3296803EB04138B6038BDBA
:100CCC00FFF7AAFFE9E700BF00380140F8B504467A
:100CDC000E4617461D4621680B6836EA030301D100
:100CEC000020F8BD6B1CF7D095B923680320DA6897
:100CFC0022F4D072DA605A6922F001025A61202380
:100D0C0084F8393084F83A30002384F83830F8BD50
:100D1C00FFF76CFAC01B8542DDD2E6E710B504463E
:100D2C0040B390F8393003F0FF021BB980F838203B
:100D3C0000F036FC2423226884F83930D36820462E
:100D4C0023F40053D360FFF787FF236800201A6950
:100D5C0022F490421A615A6922F02A025A61DA6826
:100D6C0042F40052DA602023E06384F8393084F8CE
:100D7C003A3010BD012010BD2DE9F0411F4690F80E
:100D8C0039300446202B0D4690464ED1002949D0CF
:100D9C00002A47D090F83830012B46D0012380F838
:100DAC0038300023C363212380F83930FFF71EFA53
:100DBC000646A4F82480A4F82680E38C9BB26BB979
:100DCC003B46324640212046FFF780FFA8B920233E
:100DDC0084F8380084F83930BDE8F081E38C324671
:100DEC00013B9BB2E384A3688021B3F5805F20466E
:100DFC003B460ED1FFF76AFF10B10320BDE8F0812E
:100E0C002B882268C3F308035360236943B9023566
:100E1C00D3E7FFF75BFF0028EFD123682A785A60ED
:100E2C000135CAE70120BDE8F0810220BDE8F08160
:100E3C002DE9F0411F4690F83A300446202B0D4620
:100E4C00904651D100294CD0002A4AD090F8383025
:100E5C00012B49D0012380F838300023C3632223AF
:100E6C0080F83A30FFF7C2F90646A4F82C80A4F8B3
:100E7C002E80E08D80B230B9202384F8380084F8BD
:100E8C003A30BDE8F081E38D3246013B9BB2E385FD
:100E9C00A3682021B3F5805F20463B4612D1FFF7B3
:100EAC0015FF10B10320BDE8F081236822695B684F
:100EBC0022B9C3F3080325F8023BDAE7DBB225F8C5
:100ECC00013BD6E7FFF702FF0028EBD1236821692D
:100EDC006A1C5B6811B92B701546CAE703F07F03D7
:100EEC00F9E70120BDE8F0810220BDE8F0810000A7
:100EFC0010B50A4800F086FA094B0A481C682146CE
:100F0C0000F080FA84F30888074B08481C682146D7
:100F1C0000F078FA2346BDE810401847D0220008AC
:100F2C000080000803230008048000082723000821
:100F3C00A52307B502228DF804308DF805104FF06B
:100F4C00FF3301A90248FFF717FF03B05DF804FB5C
:100F5C00980100207F2307B502A901F8013D012269
:100F6C004FF0FF330248FFF707FF03B05DF804FBB7
:100F7C0098010020F7B5044646181546FF20084F87
:100F8C00B44204D1401B18BF012003B0F0BD14F8CB
:100F9C00013B012201A938460193FFF799F9EFE7CC
:100FAC00900100208AB24FF0FF3301460148FFF751
:100FBC00E3BE00BF9801002000F16043B3F5A04FE1
:100FCC0007D900F17840B0F5803F94BF0020012094
:100FDC00704700207047000030B5030687B019D465
:100FEC00002301240293C1F18003DBB28B4294BF36
:100FFC0005930591084B03940493FFF7A3F901A9FA
:10100C0002A8FFF74FFA054620B9FFF7ADF92846BD
:10101C0007B030BD0120FBE7008000082DE9F0414E
:10102C0000240646884617462546FFF78BF9BC4236
:10103C0004D3FFF799F92846BDE8F08133195B78A2
:10104C00325D04EB080142EA032201200023FFF782
:10105C00BFF902340546EAE773B5044605784678CD
:10106C00114800F0CFF9E91E62582046FFF782FFC5
:10107C00A0B90E4800F0C6F901213046FFF758FF21
:10108C00102202AC04F8012D1146094800F0BAF9FF
:10109C0001212046FFF786FF02B070BD054800F025
:1010AC00B1F9FFF757FFF7E7C5200008EE2000085D
:1010BC00122100083521000870B5044605784678E1
:1010CC000E4800F09FF9E91E62582046FFF752FFC8
:1010DC0060B90B4800F096F930460821FFF728FF5D
:1010EC00BDE8704008210748FFF75CBF064800F0D8
:1010FC0089F9BDE87040FFF72DBF00BF9F200008A5
:10110C00EE2000080800002035210008002373B5EC
:10111C000446057846781448ADF8063000F072F9AC
:10112C00E91E62582046FFF725FFB8B90F4800F0BA
:10113C0069F902213046FFF7FBFE0D4B02AC1A6831
:10114C000C48C2F30B0224F8022D114600F05AF998
:10115C0002212046FFF726FF02B070BD064800F0C2
:10116C0051F9FFF7F7FEF7E758200008EE200008CA
:10117C00002004E07D2000083521000870B50446ED
:10118C004578194800F03EF9184800F03BF928461C
:10119C000121FFF7CDFED4F802401548214600F09E
:1011AC0031F92046FFF708FF2146054690B9114852
:1011BC0000F028F901344FF0FF33294601220E4884
:1011CC00FFF7DAFD21460D4800F01CF92346BDE877
:1011DC00704018470A4800F015F9BDE8704001212D
:1011EC000846FFF7DFBE00BF56210008EE200008BE
:1011FC007E2100089E21000898010020C8210008CB
:10120C00F321000870B584784678C578124800F050
:10121C00F9F8124800F0F6F801213046FFF788FE85
:10122C004FF400510E48FFF778FA29462046FFF795
:10123C00D3FE04464FF400510948FFF76EFA4CB93F
:10124C00084800F0DFF8084800F0DCF8BDE8704012
:10125C00FFF780BE0548F4E7E41F0008EE20000805
:10126C00001001400D200008352100083420000832
:10127C002DE9F04104468378057890F80180877950
:10128C001B481E6800F0BEF8E91E62582046FFF7A6
:10129C0071FE30BB174800F0B5F801214046FFF74E
:1012AC0047FE154800F0AEF83046FFF785FE98B9BA
:1012BC00124800F0A7F84FF400511148FFF72DFA2F
:1012CC0031463A46E01DFFF7A9FEBDE8F0414FF468
:1012DC0000510B48FFF721BA0A48BDE8F04100F075
:1012EC0091B8094800F08EF8BDE8F041FFF732BE26
:1012FC001F220008EE200008462200087222000877
:10130C0000100140A02200083521000870B5264CC1
:10131C00264D661CC8220021234800F017FA4FF016
:10132C00FF33012220492846FFF782FD4FF0FF339F
:10133C00227831462846FFF77BFD6378513B092B19
:10134C002ED801A252F823F07D1300088513000853
:10135C008D13000821130008951300089D13000835
:10136C00A5130008AD130008211300082113000871
:10137C002046FFF771FECDE72046FFF79DFEC9E73B
:10138C002046FFF7C3FEC5E72046FFF7F7FEC1E78F
:10139C002046FFF737FFBDE72046FFF769FFB9E7A7
:1013AC00034800F02FF8B5E7C80000209801002092
:1013BC005623000810B590B02822002106A800F092
:1013CC00C5F91422002101A800F0C0F901230A93E9
:1013DC00102302240B934FF4601306A80F9306946A
:1013EC000D94FFF7A1F90F234FF4806201930023B2
:1013FC00214601A80294039304920593FFF76EFB18
:10140C0010B010BD0FB400B597B018AA52F8041B59
:10141C0002A8019200F0BAF902A8FEF791FE4FF073
:10142C00FF3382B202A90448FFF7A6FC17B05DF89F
:10143C0004EB04B0704700BF9801002000B589B0E0
:10144C00FEF7B6FEFFF7B6FF102200210DEB0200EF
:10145C0000F07CF92E4B4FF400519A692D4842F064
:10146C0010029A619A69002402F010020192019A0A
:10147C009A69012642F008029A619A694FF48055E4
:10148C0002F008020292029A9A6942F004029A61EE
:10149C009B69002203F004030393039BFFF738F9C5
:1014AC004FF400530493022304A91A48079305969A
:1014BC000694FFF745F804A9174804950594069679
:1014CC00FFF73EF8154B16480360FEF7F1FE4FF49C
:1014DC00E1331448144A846080E80C000C23C46087
:1014EC00046143618461C461FFF718FC29460A4812
:1014FC00FFF708F928B90D48FFF784FFFFF706FF3F
:10150C00FEE70B48FFF77EFFFFF7F2FCF8E700BFA2
:10151C000010024000100140000C0140003002405D
:10152C00900100209801002000380140922300080F
:10153C00CF2300080E4B82B09A6942F001029A61E7
:10154C009A6902F001020092009ADA6942F0805224
:10155C00DA61DB69074A03F080530193019B5368FE
:10156C0023F0E06343F00073536002B0704700BF98
:10157C0000100240000001400268084B82B09A4201
:10158C000AD1A3F500535A6942F040025A615B69D3
:10159C0003F040030193019B02B0704700300240FE
:1015AC0010B5044686B01022002102A800F0CEF837
:1015BC002268174B9A4228D103F558439A6902A91D
:1015CC0042F480429A619A69124802F48042009275
:1015DC00009A9A6942F004029A619B6903F0040331
:1015EC000193019B4FF40073029302230393032393
:1015FC000593FEF7A5FF4FF480630293002302A925
:10160C00044803930493FEF79BFF06B010BD00BF84
:10161C0000380140000801407047FEE7FEE7FEE796
:10162C00FEE7704770477047FEF7D4BD08B50A4B0C
:10163C000246196809B909491960694618680244D3
:10164C008A4206D900F058F80C2303604FF0FF30A3
:10165C0008BD1A6008BD00BF94000020DC0100200A
:10166C000F4B1A6842F001021A6059680D4A0A4081
:10167C005A601A6822F0847222F480321A601A6856
:10168C0022F480221A605A6822F4FE025A604FF447
:10169C001F029A604FF00062034B9A60704700BFC4
:1016AC00001002400000FFF800ED00E0002103E014
:1016BC000B4B5B58435004310A480B4B42189A426F
:1016CC00F6D30A4A02E0002342F8043B084B9A4244
:1016DC00F9D3FFF7C5FF00F015F8FFF7AFFE704721
:1016EC006024000800000020780000207800002012
:1016FC00DC010020FEE70000014B1868704700BFBA
:10170C001400002070B500250C4E0D4CA41BA41029
:10171C00A54209D100F04CFC00250A4E0A4CA41B32
:10172C00A410A54205D170BD56F825309847013557
:10173C00EEE756F8253098470135F2E758240008B3
:10174C0058240008582400085C240008034602446E
:10175C00934200D1704703F8011BF9E710B59AB01A
:10176C00009104916FF00041029105914FF6FF71C9
:10177C004FF40274ADF80E106946ADF80C4000F051
:10178C006BF80022009B1A701AB010BD13460A4663
:10179C00014602480068FFF7E1BF00BF14000020BB
:1017AC002DE9F0478E6882469E420C46914698463B
:1017BC0035D88A8912F4906F31D0022325680969D3
:1017CC006F1A656905EB450595FBF3F508F1010307
:1017DC003B449D4238BF1D46530531D5294600F088
:1017EC0047FB064650B90C23CAF80030A3894FF0CA
:1017FC00FF3043F04003A381BDE8F0873A462169EE
:10180C0000F0C4FAA38923F4906343F08003A3810E
:10181C0026613E44266046466561ED1BA560464543
:10182C0028BF464649463246206800F0BAFAA368FB
:10183C0000209B1BA36023681E442660BDE8F08734
:10184C002A4600F073FB06460028E1D12169504678
:10185C0000F0C2FAC7E700002DE9F04F9DB00393EA
:10186C008B8980461C060D4616460FD50B696BB945
:10187C00402100F0FDFA2860286128B90C23C8F833
:10188C0000304FF0FF30C4E040236B61002309931C
:10189C0020238DF8293030234FF0010B8DF82A309E
:1018AC0037463C4614F8013B002B3CD1B7EB060AFB
:1018BC000BD05346324629464046FFF771FF0130A4
:1018CC0000F0A280099B534409933B78002B00F055
:1018DC009B8000234FF0FF320493079305920693ED
:1018EC008DF853301A9305222178504800F040FAB5
:1018FC00671C049BD8B9D90644BF20228DF853200D
:10190C001A0744BF2B228DF8532022782A2A16D08E
:10191C0000210A20079A27463B780134303B092BDB
:10192C0050D9C9B111E0252BC0D02746B9E73F4AA1
:10193C003C46801A0BFA00F018430490D3E7039A44
:10194C00111D12680391002A01DB079204E0524238
:10195C0043F00203079204933B782E2B0DD17B7836
:10196C00791C2A2B32D1039B02371A1D1B68039258
:10197C00002BB8BF4FF0FF3305932D4C0322397861
:10198C00204600F0F5F938B14023001B03FA00F0B3
:10199C00049B0137034304933978062225487E1CA7
:1019AC008DF8281000F0E4F9002835D0224BFBB953
:1019BC00039B073323F0070308330393099B4B4422
:1019CC0009936DE700FB02320121A4E700230A24EE
:1019DC00184605930F463A780131303A092A03D953
:1019EC00002BCAD00590C8E704FB00200123F1E7C7
:1019FC0003AB00932A46114B04A94046AFF3008079
:101A0C00B0F1FF3F8146D9D1AB895B063FF539AFC9
:101A1C0009981DB0BDE8F08F03AB00932A46074B25
:101A2C0004A9404600F084F8EAE700BF232400082C
:101A3C00292400082D24000800000000AD17000820
:101A4C002DE9F04791461F468A680B69064693427A
:101A5C00B8BF1346C9F8003091F843200C46DDF8A6
:101A6C00208012B10133C9F800302368990642BFB7
:101A7C00D9F800300233C9F80030256815F0060596
:101A8C0007D104F1190AE368D9F800209B1A9D428A
:101A9C002ADB94F843302268003318BF01239206E6
:101AAC002FD404F1430239463046C047013022D0CE
:101ABC002368E56803F00603042B18BF0025D9F84A
:101ACC0000204FF0000908BFAD1AA368226908BFB7
:101ADC0025EAE5759342C4BF9B1AED181A344D459F
:101AEC001BD10020BDE8F087012352463946304611
:101AFC00C047013003D14FF0FF30BDE8F08701350E
:101B0C00C1E73020E11881F843005A1C94F84510C5
:101B1C002244023382F84310C3E70123224639469C
:101B2C003046C0470130E6D009F10109D7E7000083
:101B3C002DE9F04317460A7E85B06E2A9846064674
:101B4C000C460C9B01F1430E00F0BC801AD8632AA2
:101B5C002ED00AD8002A00F0C880582A00F08A80BB
:101B6C0004F1420584F842202AE0642A01D0692A53
:101B7C00F6D121681A6811F0800F23D0111D19605D
:101B8C00136827E0732A00F0B48008D86F2A2AD093
:101B9C00702AE5D10A6842F020020A6003E0752A37
:101BAC0021D0782ADCD178226F4984F8452064E072
:101BBC001A6801F14205111D1960136884F842304E
:101BCC000123A3E011F0400F02F104011960D7D0FA
:101BDC00B2F90030002B03DA2D225B4284F843204B
:101BEC0062490A2217E02068196810F0800F03D0B0
:101BFC00081D18600B6806E010F0400F01F104009E
:101C0C001860F7D00B886F2A14BF0A220822574994
:101C1C00002084F843006568002DA560C0F29C800C
:101C2C00206820F004002060002B3FD1002D40F0F4
:101C3C0095807546082A0BD12368DA0708D52369E5
:101C4C0062689A42DEBF302305F8013C05F1FF358E
:101C5C00AEEB05032361CDF800803B4603AA214679
:101C6C003046FFF7EDFE013055D14FF0FF3005B097
:101C7C00BDE8F08381F845203C492268186812F0D1
:101C8C00800F00F104051D6001D0036802E05506C9
:101C9C00FBD50388D00744BF42F0200222601BB959
:101CAC00226822F0200222601022B1E77546B3FBB5
:101CBC00F2F002FB1033CB5C05F8013D0346002823
:101CCC00F5D1B7E708681A6810F0800F496904D09D
:101CDC00101D18601368196007E010F0400F02F136
:101CEC00040018601368F6D0198000237546236130
:101CFC00B1E71A68111D1960156800216268284641
:101D0C0000F036F808B1401B606063682361002363
:101D1C0084F843309FE723692A4639463046C0474A
:101D2C000130A2D023689B0707D5002504F11909BF
:101D3C00E368039A9B1A9D4205DBE068039B98427B
:101D4C00B8BF184693E701234A4639463046C04788
:101D5C0001308AD00135EBE7002BA7D10B7804F1C9
:101D6C00420584F8423065E7452400083424000815
:101D7C0010B5C9B202449042034601D1002010BDF7
:101D8C001C7801308C42F6D1184610BD10B5431E9C
:101D9C000A44914200D110BD11F8014B03F8014FD8
:101DAC00F7E7884210B501EB020303D8421E9942B3
:101DBC000CD110BD9842F9D28118D21AD34200D15D
:101DCC0010BD13F8014D01F8014DF7E711F8014B67
:101DDC0002F8014FEBE7000038B50546002943D067
:101DEC0051F8043C0C1F002BB8BFE41800F0D4F8D9
:101DFC001E4A1368104633B9636014602846BDE868
:101E0C00384000F0CAB8A3420BD92168621893423B
:101E1C0001BF1A685B685218226063600460EDE7CA
:101E2C0013465A680AB1A242FAD919685818A04246
:101E3C000BD120680144581882421960DED1106819
:101E4C005268014419605A60D8E702D90C232B6000
:101E5C00D4E7206821188A4201BF1168526809181A
:101E6C00216062605C60C9E738BD00BF980000204B
:101E7C0070B5CD1C25F0030508350C2D38BF0C258D
:101E8C00002D064601DBA94203D90C233360002048
:101E9C0070BD00F081F8234A1468214691B9224C98
:101EAC0023681BB9304600F067F82060294630469D
:101EBC0000F062F8431C26D10C233046336000F04E
:101ECC006CF8E4E70B685B1B1AD40B2B0FD90B6077
:101EDC00CC18CD50304600F060F804F10B00231DF7
:101EEC0020F00700C31A1BD05A42E25070BD8C423E
:101EFC000BBF63684B681360636018BF0C46E9E75F
:101F0C000C464968CAE7C41C24F00304A04205D05F
:101F1C00211A304600F030F80130CDD02560D9E7D9
:101F2C0070BD00BF980000209C000020F8B507464B
:101F3C0014460E4621B91146BDE8F840FFF798BF8C
:101F4C0022B9FFF749FF25462846F8BD00F026F8D0
:101F5C0084420FD921463846FFF78AFF05460028F0
:101F6C00F2D031462246FFF711FF31463846FFF7D3
:101F7C0033FFE9E73546E7E738B50023054C05465E
:101F8C0008462360FFF752FB431C02D1236803B1C0
:101F9C002B6038BDD80100207047704751F8040CF5
:101FAC000028A0F10400BCBF0B58C01870470000FB
:101FBC00F8B500BFF8BC08BC9E467047F8B500BF2A
:081FCC00F8BC08BC9E467047FA
:101FD40002030405060708090A0B0C0D0E0F101066
:101FE400424C5F44454255475F4D53473A20424C6B
:101FF4005F68616E6C64655F666C6173684572618D
:1020040073655F636D640D0A00424C5F444542553D
:10201400475F4D53473A20464C4153485F457261F0
:1020240073655F535543434553532021210D0A00E3
:10203400424C5F44454255475F4D53473A20464C16
:102044004153485F45726173655F4641494C2021A5
:10205400210D0A00424C5F44454255475F4D5347AA
:102064003A20424C5F68616E6C64655F67657443D7
:1020740049445F636D640D0A00424C5F4445425518
:10208400475F4D53473A20424C5F63686970494447
:102094003A202564092523780D0A00424C5F444503
:1020A4004255475F4D53473A20424C5F68616E6C1E
:1020B40064655F67657448656C705F636D640D0A81
:1020C40000424C5F44454255475F4D53473A2042D6
:1020D4004C5F68616E6C64655F67657456657273A6
:1020E400696F6E5F636D640D0A00424C5F44454244
:1020F40055475F4D53473A20436865636B73756D6D
:1021040020537563636573732021210D0A00424CCB
:102114005F44454255475F4D53473A20424C5F5612
:10212400657273696F6E3A202564092523780D0A58
:1021340000424C5F44454255475F4D53473A204364
:102144006865636B73756D204641494C2021210DF0
:102154000A00424C5F44454255475F4D53473A207D
:10216400424C5F68616E6C64655F676F4164647262
:102174006573735F636D640D0A00424C5F444542AE
:1021840055475F4D53473A20474F204144445245F9
:1021940053533A202523780D0A00424C5F444542AC
:1021A40055475F4D53473A20474F204144445245D9
:1021B40053533A202523782069732056414C4944CF
:1021C400200D0A00424C5F44454255475F4D53473A
:1021D4003A204A756D70696E6720546F20474F200E
:1021E400414444524553533A202523780D0A004272
:1021F4004C5F44454255475F4D53473A20474F2073
:10220400414444524553533A20252378206973208E
:10221400494E56414C4944200D0A00424C5F444506
:102224004255475F4D53473A20424C5F68616E6C9C
:1022340064655F6D656D57726974655F636D640D88
:102244000A00424C5F44454255475F4D53473A208C
:1022540042617365204D656D205772697465204134
:102264006464726573733A202523780D0A00424C26
:102274005F44454255475F4D53473A2056616C6968
:10228400642042617365204D656D205772697465E1
:102294002041646472657373200D0A00424C5F44EC
:1022A400454255475F4D53473A20496E76616C6904
:1022B400642042617365204D656D205772697465B1
:1022C4002041646472657373200D0A00424C5F44BC
:1022D400454255475F4D53473A426F6F746C6F6187
:1022E4006465725F6A756D705F746F5F5573657254
:1022F4005F4170706C69636174696F6E0D0A0042AE
:102304004C5F44454255475F4D53473A5573657298
:102314005F4D53505F56616C7565203A20252378D4
:102324000D0A00424C5F44454255475F4D53473ABE
:102334004170705F52657365745F48616E646C656B
:10234400725F41646472657373203A202523780DAB
:102354000A00424C5F44454255475F4D53473A207B
:10236400494E56414C494420434F4D4D414E442023
:10237400434F44452052454345495645442046521F
:102384004F4D2054484520484F53540D0A00424CA9
:102394005F44454255475F4D53473A427574746FE5
:1023A4006E2069732070726573736564202E2E200D
:1023B400476F696E6720746F20426F6F746C6F6132
:1023C400646572204D6F64650D0A00424C5F44459C
:1023D4004255475F4D53473A427574746F6E206996
:1023E40073206E6F742070726573736564202E2E73
:1023F40020457865637574696E672075736572200E
:102404004D6F64650D0A000000000000000000012B
:102414000203040607080900000000010203042364
:102424002D302B2000686C4C0065666745464700DC
:1024340030313233343536373839414243444546F6
:10244400003031323334353637383961626364658C
:04245400660000001E
:042458003101000846
:04245C000D01000866
:102460000100000010000000515253545556575AB5
:102470000024F4001800002000000000000000000C
:10248000000000000000000000000000000000004C
:10249000000000000000000000000000000000003C
:1024A000000000000000000000000000000000002C
:1024B000000000000000000000000000000000001C
:1024C000000000000000000000000000000000000C
:0824D000000000000000000004
:04000005080016B920
:00000001FF
